:1000000064EF00F00000000000EF00F000000000CE
:0A0010000000000000000000F3D71C
:0C001C000E0E0D6E0D2EFED7000012001F
:100028000900F5CFE6FF0006FBE10106F9E1120041
:10003800C26A151C006E0050C1160F0EC012C08E89
:1000480018C000F000360090003600900050C21230
:10005800C280E0DFC282C2A201D0FDD7C4CF01F0C6
:10006800006A00C019F001C01AF0C3500012000E57
:10007800011200C019F001C01AF0C290000E00145D
:10008800026E0150800B036E000E031802E1000E91
:10009800021802E0196A1A6A19C000F01AC001F0C1
:0200A800120044
:1000AA000B0E0B6E260E0C6E5D0E0D6E0D2EFED710
:0E00BA000C2EFCD70B2EFAD70000000012000F
:1000C8007EEC00F0010E0F01386F3B6B3A6B010EAE
:1000D800926E956A946AE5DFE4DF186AA9DF00C0CA
:1000E80016F001C017F000C08BFF17C08CFFF5D7C2
:0200F800FFD730
:1000FC0010EE15F0010E006E010E016EFA0EF66E8A
:0E010C00000EF76E000EF86E14EC00F01200FC
:0100FA000FF6
:020000040030CA
:0D000100231F3CFFBF81FF0FC00FE00F4029
:00000001FF
